{
  "_format": "hh-sol-artifact-1",
  "contractName": "IdentityManagement",
  "sourceName": "contracts/IdentityManagement.sol",
  "abi": [
    {
      "inputs": [
        {
          "internalType": "address",
          "name": "_user",
          "type": "address"
        }
      ],
      "name": "getIdentity",
      "outputs": [
        {
          "components": [
            {
              "internalType": "address",
              "name": "userAddress",
              "type": "address"
            },
            {
              "internalType": "string",
              "name": "userName",
              "type": "string"
            },
            {
              "internalType": "bytes32",
              "name": "publicKey",
              "type": "bytes32"
            }
          ],
          "internalType": "struct IdentityManagement.Identity",
          "name": "",
          "type": "tuple"
        }
      ],
      "stateMutability": "view",
      "type": "function"
    },
    {
      "inputs": [
        {
          "internalType": "address",
          "name": "",
          "type": "address"
        }
      ],
      "name": "identities",
      "outputs": [
        {
          "internalType": "address",
          "name": "userAddress",
          "type": "address"
        },
        {
          "internalType": "string",
          "name": "userName",
          "type": "string"
        },
        {
          "internalType": "bytes32",
          "name": "publicKey",
          "type": "bytes32"
        }
      ],
      "stateMutability": "view",
      "type": "function"
    },
    {
      "inputs": [
        {
          "internalType": "string",
          "name": "_userName",
          "type": "string"
        },
        {
          "internalType": "bytes32",
          "name": "_publicKey",
          "type": "bytes32"
        }
      ],
      "name": "registerIdentity",
      "outputs": [],
      "stateMutability": "nonpayable",
      "type": "function"
    }
  ],
  "bytecode": "0x6080604052348015600f57600080fd5b50610b418061001f6000396000f3fe608060405234801561001057600080fd5b50600436106100415760003560e01c806301fc6085146100465780632fea7b8114610062578063f653b81e14610092575b600080fd5b610060600480360381019061005b9190610587565b6100c4565b005b61007c60048036038101906100779190610641565b6101a1565b604051610089919061075b565b60405180910390f35b6100ac60048036038101906100a79190610641565b6102eb565b6040516100bb939291906107e5565b60405180910390f35b60405180606001604052803373ffffffffffffffffffffffffffffffffffffffff168152602001838152602001828152506000803373ffffffffffffffffffffffffffffffffffffffff1673ffffffffffffffffffffffffffffffffffffffff16815260200190815260200160002060008201518160000160006101000a81548173ffffffffffffffffffffffffffffffffffffffff021916908373ffffffffffffffffffffffffffffffffffffffff160217905550602082015181600101908161018f9190610a39565b50604082015181600201559050505050565b6101a96103bd565b6000808373ffffffffffffffffffffffffffffffffffffffff1673ffffffffffffffffffffffffffffffffffffffff1681526020019081526020016000206040518060600160405290816000820160009054906101000a900473ffffffffffffffffffffffffffffffffffffffff1673ffffffffffffffffffffffffffffffffffffffff1673ffffffffffffffffffffffffffffffffffffffff16815260200160018201805461025890610852565b80601f016020809104026020016040519081016040528092919081815260200182805461028490610852565b80156102d15780601f106102a6576101008083540402835291602001916102d1565b820191906000526020600020905b8154815290600101906020018083116102b457829003601f168201915b505050505081526020016002820154815250509050919050565b60006020528060005260406000206000915090508060000160009054906101000a900473ffffffffffffffffffffffffffffffffffffffff169080600101805461033490610852565b80601f016020809104026020016040519081016040528092919081815260200182805461036090610852565b80156103ad5780601f10610382576101008083540402835291602001916103ad565b820191906000526020600020905b81548152906001019060200180831161039057829003601f168201915b5050505050908060020154905083565b6040518060600160405280600073ffffffffffffffffffffffffffffffffffffffff16815260200160608152602001600080191681525090565b6000604051905090565b600080fd5b600080fd5b600080fd5b600080fd5b6000601f19601f8301169050919050565b7f4e487b7100000000000000000000000000000000000000000000000000000000600052604160045260246000fd5b61045e82610415565b810181811067ffffffffffffffff8211171561047d5761047c610426565b5b80604052505050565b60006104906103f7565b905061049c8282610455565b919050565b600067ffffffffffffffff8211156104bc576104bb610426565b5b6104c582610415565b9050602081019050919050565b82818337600083830152505050565b60006104f46104ef846104a1565b610486565b9050828152602081018484840111156105105761050f610410565b5b61051b8482856104d2565b509392505050565b600082601f8301126105385761053761040b565b5b81356105488482602086016104e1565b91505092915050565b6000819050919050565b61056481610551565b811461056f57600080fd5b50565b6000813590506105818161055b565b92915050565b6000806040838503121561059e5761059d610401565b5b600083013567ffffffffffffffff8111156105bc576105bb610406565b5b6105c885828601610523565b92505060206105d985828601610572565b9150509250929050565b600073ffffffffffffffffffffffffffffffffffffffff82169050919050565b600061060e826105e3565b9050919050565b61061e81610603565b811461062957600080fd5b50565b60008135905061063b81610615565b92915050565b60006020828403121561065757610656610401565b5b60006106658482850161062c565b91505092915050565b61067781610603565b82525050565b600081519050919050565b600082825260208201905092915050565b60005b838110156106b757808201518184015260208101905061069c565b60008484015250505050565b60006106ce8261067d565b6106d88185610688565b93506106e8818560208601610699565b6106f181610415565b840191505092915050565b61070581610551565b82525050565b6000606083016000830151610723600086018261066e565b506020830151848203602086015261073b82826106c3565b915050604083015161075060408601826106fc565b508091505092915050565b60006020820190508181036000830152610775818461070b565b905092915050565b61078681610603565b82525050565b600082825260208201905092915050565b60006107a88261067d565b6107b2818561078c565b93506107c2818560208601610699565b6107cb81610415565b840191505092915050565b6107df81610551565b82525050565b60006060820190506107fa600083018661077d565b818103602083015261080c818561079d565b905061081b60408301846107d6565b949350505050565b7f4e487b7100000000000000000000000000000000000000000000000000000000600052602260045260246000fd5b6000600282049050600182168061086a57607f821691505b60208210810361087d5761087c610823565b5b50919050565b60008190508160005260206000209050919050565b60006020601f8301049050919050565b600082821b905092915050565b6000600883026108e57fffffffffffffffffffffffffffffffffffffffffffffffffffffffffffffffff826108a8565b6108ef86836108a8565b95508019841693508086168417925050509392505050565b6000819050919050565b6000819050919050565b600061093661093161092c84610907565b610911565b610907565b9050919050565b6000819050919050565b6109508361091b565b61096461095c8261093d565b8484546108b5565b825550505050565b600090565b61097961096c565b610984818484610947565b505050565b5b818110156109a85761099d600082610971565b60018101905061098a565b5050565b601f8211156109ed576109be81610883565b6109c784610898565b810160208510156109d6578190505b6109ea6109e285610898565b830182610989565b50505b505050565b600082821c905092915050565b6000610a10600019846008026109f2565b1980831691505092915050565b6000610a2983836109ff565b9150826002028217905092915050565b610a428261067d565b67ffffffffffffffff811115610a5b57610a5a610426565b5b610a658254610852565b610a708282856109ac565b600060209050601f831160018114610aa35760008415610a91578287015190505b610a9b8582610a1d565b865550610b03565b601f198416610ab186610883565b60005b82811015610ad957848901518255600182019150602085019450602081019050610ab4565b86831015610af65784890151610af2601f8916826109ff565b8355505b6001600288020188555050505b50505050505056fea2646970667358221220e5390c02a9981137b171e2ce46c11ea0135a07375318e481c620344ae3e8c53764736f6c634300081b0033",
  "linkReferences": {},
  "deployedLinkReferences": {}
}